:040000004DEF00F0D0
:10000800F2A203D0D58ECD90F292F0A003D0CD808D
:10001800D59EF090F2A405D0C20ED76EF70ED66E1C
:10002800F2949EA005D00B0ECF6EDC0ECE6E9E9085
:1000380015C000F016C001F0000E16BEFF0E026ECD
:10004800036E00360090013602360336D80E0024BF
:10005800F66E000E0120F76E000E0220F86E090001
:10006800F5CF83FF800E1618006E800E005C02E14B
:10007800090E155C03E3056A066A06D0010E15240D
:10008800056E000E1620066E05C015F006C016F0A7
:02009800110055
:10009A00156A166A93809382956A836AF19ED08E56
:1000AA00F28EF288F292F18CF28AF294060ED56EF2
:1000BA009D809E909F80300ECD6E0B0ECF6EDC0E13
:0E00CA00CE6EC20ED76EF70ED66EFFD7FFD7E2
:1000D8003F0006005B004F0066006D007D000700D2
:0400E8007F0067002E
:020000040030CA
:0E000000000C1F1EFF8381FF0FC00FE00F409A
:00000001FF
